:0400000055EF00F0C8
:06000800568270ED05F0C8
:100018005680D8CF14F0E8CF15F0E0CF16F0FACF1D
:1000280017F0FBCF18F0E9CF19F0EACF1AF0E1CFBB
:100038001BF0E2CF1CF0D9CF1DF0DACF1EF0F3CFC2
:100048001FF0F4CF20F0F6CF21F0F7CF22F0F8CF51
:1000580023F0F5CF24F0F29EF28E24C0F5FF23C0E2
:10006800F8FF22C0F7FF21C0F6FF20C0F4FF1FC031
:10007800F3FF1EC0DAFF1DC0D9FF1CC0E2FF1BC082
:10008800E1FF1AC0EAFF19C0E9FF18C0FBFF17C05B
:10009800FAFF16C0E0FF15C0E8FF14C0D8FF56905D
:0600A80010005AEF06F003
:100600000001000A006400E80310270D3230256461
:1006100025642F256425642F256425642025642501
:10062000643A256425643A25642564000A0D7072D5
:0F0630006F6772616D2073746172740A0D000040
:1006400020EE93F010EE8CF0060EDBCFE3FFE80611
:10065000FCE2D388D38AD38C030ED312D3A4FED763
:100660009A0E256E000E266E000E286E000E276E66
:10067000000E2A6E070E296E89EC06F000019A9989
:100680009A9B9A9D00019A999A9B9A9D00019B5171
:10069000F00B05099B6F00019B518F0B10099B6F9D
:1006A00000019C51F00B03099C6F00019C51CF0B82
:1006B00020099C6F00019D819D839D8500019E51B5
:1006C000F00B07099E6F00019E51CF0B10099E6F22
:1006D00000019F51F00B01099F6F00019F890001EC
:1006E000A051F00B0809A06F0001A0510F0B1009D9
:1006F000A06F8C0E256E000E266E9A0E276E000ED1
:10070000286E000E2A6E070E296E04EC06F0150EF8
:100710000001816F4B0E0001806FBE0EE82EFED7E8
:10072000802FFCD7812FFAD700F0000E936E000EB9
:100730008A6E000E266E330E256E000E286E000E99
:10074000276E000E2A6E010E296E000E2C6E000E12
:100750002B6E3FEC06F0000E316E010E326E2C0E49
:10076000336E060E346ECCEC04F0000E266E010ED5
:10077000276E24EC06F0D08EF28EF28CB0EC06F0F0
:10078000DBEC06F0D00EBCEC06F0000EBCEC06F084
:1007900000018C51BCEC06F000018D51BCEC06F060
:1007A00000018E51BCEC06F000018F51BCEC06F04C
:1007B00000019051BCEC06F000019151BCEC06F038
:1007C00000019251BCEC06F0D7EC06F0000E316E41
:1007D000010E326E3B0E336E060E346ECCEC04F01E
:1007E000000E266E010E276E24EC06F00001A151CA
:1007F000D8B403D0000E0001A16FDBEC06F0D00EE0
:10080000BCEC06F0000EBCEC06F0DFEC06F0D10EFE
:10081000BCEC06F0010E9FEC06F000018C6F010E9F
:100820009FEC06F000018D6F010E9FEC06F00001B9
:100830008E6F010E9FEC06F000018F6F010E9FEC92
:1008400006F00001906F010E9FEC06F00001916F21
:10085000000E9FEC06F00001926FD7EC06F09A0EA6
:10086000256E000E266E8C0E276E000E286E000E72
:100870002A6E070E296E04EC06F0000E316E010E92
:10088000326E0B0E336E060E346E0001A0390F0B64
:100890000001806F00018051356E366A0001A05161
:1008A0000F0B0001816F00018151376E386A000122
:1008B0009FA904D00001826B822B02D00001826BC1
:1008C00000018251396E3A6A00019F510F0B0001FD
:1008D000836F000183513B6E3C6A00019E39030B1C
:1008E0000001846F000184513D6E3E6A00019E51FB
:1008F0000F0B0001856F000185513F6E406A0001BA
:100900009C39030B0001866F00018651416E426ADB
:1009100000019C510F0B0001876F00018751436E4E
:10092000446A00019B39070B0001886F0001885160
:10093000456E466A00019B510F0B0001896F000153
:100940008951476E486A00019A39070B00018A6F86
:1009500000018A51496E4A6A00019A510F0B000149
:100960008B6F00018B514B6E4C6ACCEC04F0000E87
:10097000266E010E276E24EC06F0060E0001816F34
:10098000130E0001806FAD0EE82EFED7802FFCD72E
:10099000812FFAD700D02AD7350E4E6E000E4F6E3B
:1009A0008CD0250E5418D8B409D031C0D9FF32C02C
:1009B000DAFF54C0DFFF314A322A7FD0000E506E7A
:1009C00033C0F6FF34C0F7FF334A342A0800F5CFAE
:1009D00054F05450000AD8B47CD0640AD8B403D080
:1009E0000D0AD8A46AD04EC0D9FF4FC0DAFFDECFBF
:1009F00052F0DDCF53F0020E4E26000E4F2253AEC2
:100A000006D0030E5012526C531ED8B0532A010E5A
:100A1000546E050E5418D8B412D05450020D010E65
:100A2000F324F66E060EF420F76E0900F550525CC2
:100A30000900F5505358D8A002D0542AEAD750C024
:100A40004DF0030E4D16D8B408D031C0D9FF32C0D6
:100A5000DAFF2D0EDF6E314A322A54C051F029D010
:100A60005150020D010EF324F66E060EF420F76EBF
:100A70000900F5CF27F00A00F5CF28F052C025F085
:100A800053C026F0BAEC05F025C02CF026C02DF09E
:100A9000000E2F6E0A0E2E6EE3EC05F02C50300F78
:100AA000546E31C0D9FF32C0DAFF54C0DFFF314A83
:100AB000322A51065128D8A4D3D733C0F6FF34C008
:100AC000F7FF334A342A0800F5CF54F05450D8A425
:100AD00068D731C0D9FF32C0DAFF000EDF6E1200D6
:100AE0000600FACF06F0FBCF07F0E9CF08F0EACF17
:100AF00009F0E1CF0AF0E2CF0BF0D9CF0CF0DACF5A
:100B00000DF0F3CF0EF0F4CF0FF0F6CF10F0F7CFDB
:100B100011F0F8CF12F0F5CF13F0F29E9EAA0BD091
:100B2000550E016E000E026EA10E036E000E046ED5
:100B300072EC06F09E9AF28E13C0F5FF12C0F8FF19
:100B400011C0F7FF10C0F6FF0FC0F4FF0EC0F3FF97
:100B50000DC0DAFF0CC0D9FF0BC0E2FF0AC0E1FFF5
:100B600009C0EAFF08C0E9FF07C0FBFF06C0FAFFA3
:100B700056921100000E2A6E000E296E2750281082
:100B8000D8B41CD0010E2B6E04D0D890273628364E
:100B90002B2A28AEFAD7D89029362A362750255C3A
:100BA00028502658D8A005D02750255E2850265A10
:100BB0002980D890283227322B2EEDD729C025F056
:100BC0002AC026F012002E502F10D8B418D0010ED3
:100BD000306E04D0D8902E362F36302A2FAEFAD76A
:100BE0002E502C5C2F502D58D8A004D02E502C5EA7
:100BF0002F502D5AD8902F322E32302EF1D72CC0B4
:100C00002CF02DC02DF0120027C02DF028C02EF0A2
:100C100025C02BF026C02CF00ED02DC0D9FF2EC041
:100C2000DAFF2BC0E1FF2CC0E2FFDFCFE7FF2D4A48
:100C30002E2A2B4A2C2A2906D8A02A062928EDE19B
:100C40002A28D8B41200E9D7000E286E0CD02850FC
:100C5000010DF3502624D96EF4502720DA6EDF50B0
:100C6000CFEC06F0282A2850010DF3502624D96E27
:100C7000F4502720DA6EDF50D8B41200E8D7948EF3
:100C8000948C2650B06E25C0AFFFAB88AB8E2BB0D6
:100C900002D0B89601D0B88627B002D0AC9801D067
:100CA000AC8829B002D0AC9401D0AC84AC8A9F8AC5
:100CB0009D8A120001EE00F011EE00F0EE6AE550A0
:100CC000E150FCE1E250FAE100EE93F00F0EEE6A23
:100CD000E806FDE1556A56905692000EF86E000146
:100CE00020EF03F0ABA403D0AECF05F01200ABA20F
:100CF00003D0AB98AB88120001C0D9FF02C0DAFF65
:100D0000AECFDFFF03C0D9FF04C0DAFF010EDF6EF4
:100D1000120025C02BF026C02CF008D02BC0D9FF24
:100D20002CC0DAFF27C0DFFF2B4A2C2A2906D8A0C7
:100D30002A062928F3E12A28D8B41200EFD7266E14
:100D4000000E276EC6EC06F0C586C7A0FED7C9CF39
:100D500027F026B002D0C59801D0C58827501200D0
:100D600094869488C78EC79CC650F00B0809C66E3F
:100D7000130EC86EC68A1200266EC6EC06F026C098
:100D8000C9FFC7B0FED7C5AC1200FDD7C5CF25F04F
:100D90001F0E2516D8A4FAD7C7A41200F7D7256EC0
:100DA00025C0ADFF01D000F0ACB21200FCD7C6ECFC
:100DB00006F0C5841200C6EC06F0C5801200C6EC31
:060DC00006F0C5821200DE
:020000040020DA
:08000000FFFFFFFFFFFFFFFF00
:020000040030CA
:0E000000FF08191EFF8181FF0FC00FE00F40A7
:00000001FF
